{
  "contractName": "SimpleNFT",
  "abi": [
    {
      "inputs": [],
      "stateMutability": "nonpayable",
      "type": "constructor"
    },
    {
      "anonymous": false,
      "inputs": [
        {
          "indexed": true,
          "internalType": "address",
          "name": "owner",
          "type": "address"
        },
        {
          "indexed": true,
          "internalType": "address",
          "name": "approved",
          "type": "address"
        },
        {
          "indexed": true,
          "internalType": "uint256",
          "name": "tokenId",
          "type": "uint256"
        }
      ],
      "name": "Approval",
      "type": "event"
    },
    {
      "anonymous": false,
      "inputs": [
        {
          "indexed": true,
          "internalType": "address",
          "name": "owner",
          "type": "address"
        },
        {
          "indexed": true,
          "internalType": "address",
          "name": "operator",
          "type": "address"
        },
        {
          "indexed": false,
          "internalType": "bool",
          "name": "approved",
          "type": "bool"
        }
      ],
      "name": "ApprovalForAll",
      "type": "event"
    },
    {
      "anonymous": false,
      "inputs": [
        {
          "indexed": true,
          "internalType": "address",
          "name": "from",
          "type": "address"
        },
        {
          "indexed": true,
          "internalType": "address",
          "name": "to",
          "type": "address"
        },
        {
          "indexed": true,
          "internalType": "uint256",
          "name": "tokenId",
          "type": "uint256"
        }
      ],
      "name": "Transfer",
      "type": "event"
    },
    {
      "inputs": [
        {
          "internalType": "address",
          "name": "to",
          "type": "address"
        },
        {
          "internalType": "uint256",
          "name": "tokenId",
          "type": "uint256"
        }
      ],
      "name": "approve",
      "outputs": [],
      "stateMutability": "nonpayable",
      "type": "function"
    },
    {
      "inputs": [
        {
          "internalType": "address",
          "name": "owner",
          "type": "address"
        }
      ],
      "name": "balanceOf",
      "outputs": [
        {
          "internalType": "uint256",
          "name": "",
          "type": "uint256"
        }
      ],
      "stateMutability": "view",
      "type": "function",
      "constant": true
    },
    {
      "inputs": [
        {
          "internalType": "uint256",
          "name": "",
          "type": "uint256"
        }
      ],
      "name": "dataEntries",
      "outputs": [
        {
          "internalType": "string",
          "name": "name",
          "type": "string"
        }
      ],
      "stateMutability": "view",
      "type": "function",
      "constant": true
    },
    {
      "inputs": [
        {
          "internalType": "uint256",
          "name": "tokenId",
          "type": "uint256"
        }
      ],
      "name": "getApproved",
      "outputs": [
        {
          "internalType": "address",
          "name": "",
          "type": "address"
        }
      ],
      "stateMutability": "view",
      "type": "function",
      "constant": true
    },
    {
      "inputs": [
        {
          "internalType": "address",
          "name": "owner",
          "type": "address"
        },
        {
          "internalType": "address",
          "name": "operator",
          "type": "address"
        }
      ],
      "name": "isApprovedForAll",
      "outputs": [
        {
          "internalType": "bool",
          "name": "",
          "type": "bool"
        }
      ],
      "stateMutability": "view",
      "type": "function",
      "constant": true
    },
    {
      "inputs": [],
      "name": "name",
      "outputs": [
        {
          "internalType": "string",
          "name": "",
          "type": "string"
        }
      ],
      "stateMutability": "view",
      "type": "function",
      "constant": true
    },
    {
      "inputs": [],
      "name": "owner",
      "outputs": [
        {
          "internalType": "address",
          "name": "",
          "type": "address"
        }
      ],
      "stateMutability": "view",
      "type": "function",
      "constant": true
    },
    {
      "inputs": [
        {
          "internalType": "uint256",
          "name": "tokenId",
          "type": "uint256"
        }
      ],
      "name": "ownerOf",
      "outputs": [
        {
          "internalType": "address",
          "name": "",
          "type": "address"
        }
      ],
      "stateMutability": "view",
      "type": "function",
      "constant": true
    },
    {
      "inputs": [
        {
          "internalType": "address",
          "name": "from",
          "type": "address"
        },
        {
          "internalType": "address",
          "name": "to",
          "type": "address"
        },
        {
          "internalType": "uint256",
          "name": "tokenId",
          "type": "uint256"
        }
      ],
      "name": "safeTransferFrom",
      "outputs": [],
      "stateMutability": "nonpayable",
      "type": "function"
    },
    {
      "inputs": [
        {
          "internalType": "address",
          "name": "from",
          "type": "address"
        },
        {
          "internalType": "address",
          "name": "to",
          "type": "address"
        },
        {
          "internalType": "uint256",
          "name": "tokenId",
          "type": "uint256"
        },
        {
          "internalType": "bytes",
          "name": "_data",
          "type": "bytes"
        }
      ],
      "name": "safeTransferFrom",
      "outputs": [],
      "stateMutability": "nonpayable",
      "type": "function"
    },
    {
      "inputs": [
        {
          "internalType": "address",
          "name": "operator",
          "type": "address"
        },
        {
          "internalType": "bool",
          "name": "approved",
          "type": "bool"
        }
      ],
      "name": "setApprovalForAll",
      "outputs": [],
      "stateMutability": "nonpayable",
      "type": "function"
    },
    {
      "inputs": [
        {
          "internalType": "bytes4",
          "name": "interfaceId",
          "type": "bytes4"
        }
      ],
      "name": "supportsInterface",
      "outputs": [
        {
          "internalType": "bool",
          "name": "",
          "type": "bool"
        }
      ],
      "stateMutability": "view",
      "type": "function",
      "constant": true
    },
    {
      "inputs": [],
      "name": "symbol",
      "outputs": [
        {
          "internalType": "string",
          "name": "",
          "type": "string"
        }
      ],
      "stateMutability": "view",
      "type": "function",
      "constant": true
    },
    {
      "inputs": [
        {
          "internalType": "uint256",
          "name": "tokenId",
          "type": "uint256"
        }
      ],
      "name": "tokenURI",
      "outputs": [
        {
          "internalType": "string",
          "name": "",
          "type": "string"
        }
      ],
      "stateMutability": "view",
      "type": "function",
      "constant": true
    },
    {
      "inputs": [
        {
          "internalType": "address",
          "name": "from",
          "type": "address"
        },
        {
          "internalType": "address",
          "name": "to",
          "type": "address"
        },
        {
          "internalType": "uint256",
          "name": "tokenId",
          "type": "uint256"
        }
      ],
      "name": "transferFrom",
      "outputs": [],
      "stateMutability": "nonpayable",
      "type": "function"
    },
    {
      "inputs": [
        {
          "internalType": "string",
          "name": "name",
          "type": "string"
        }
      ],
      "name": "mint",
      "outputs": [],
      "stateMutability": "nonpayable",
      "type": "function"
    }
  ],
  "bytecode": "0x608060405233600660006101000a81548173ffffffffffffffffffffffffffffffffffffffff021916908373ffffffffffffffffffffffffffffffffffffffff1602179055503480156200005257600080fd5b506040518060400160405280600a81526020017f53696d706c65204e4654000000000000000000000000000000000000000000008152506040518060400160405280600481526020017f534e4654000000000000000000000000000000000000000000000000000000008152508160009080519060200190620000d7929190620000f9565b508060019080519060200190620000f0929190620000f9565b5050506200020d565b8280546200010790620001d8565b90600052602060002090601f0160209004810192826200012b576000855562000177565b82601f106200014657805160ff191683800117855562000177565b8280016001018555821562000177579182015b828111156200017657825182559160200191906001019062000159565b5b5090506200018691906200018a565b5090565b5b80821115620001a55760008160009055506001016200018b565b5090565b7f4e487b7100000000000000000000000000000000000000000000000000000000600052602260045260246000fd5b60006002820490506001821680620001f157607f821691505b602082108103620002075762000206620001a9565b5b50919050565b612bc8806200021d6000396000f3fe608060405234801561001057600080fd5b50600436106101005760003560e01c806370a0823111610097578063b88d4fde11610066578063b88d4fde146102bf578063c87b56dd146102db578063d85d3d271461030b578063e985e9c51461032757610100565b806370a08231146102375780638da5cb5b1461026757806395d89b4114610285578063a22cb465146102a357610100565b806323b872dd116100d357806323b872dd1461019f578063325f4658146101bb57806342842e0e146101eb5780636352211e1461020757610100565b806301ffc9a71461010557806306fdde0314610135578063081812fc14610153578063095ea7b314610183575b600080fd5b61011f600480360381019061011a91906119e0565b610357565b60405161012c9190611a28565b60405180910390f35b61013d610439565b60405161014a9190611adc565b60405180910390f35b61016d60048036038101906101689190611b34565b6104cb565b60405161017a9190611ba2565b60405180910390f35b61019d60048036038101906101989190611be9565b610550565b005b6101b960048036038101906101b49190611c29565b610667565b005b6101d560048036038101906101d09190611b34565b6106c7565b6040516101e29190611adc565b60405180910390f35b61020560048036038101906102009190611c29565b610779565b005b610221600480360381019061021c9190611b34565b610799565b60405161022e9190611ba2565b60405180910390f35b610251600480360381019061024c9190611c7c565b61084a565b60405161025e9190611cb8565b60405180910390f35b61026f610901565b60405161027c9190611ba2565b60405180910390f35b61028d610927565b60405161029a9190611adc565b60405180910390f35b6102bd60048036038101906102b89190611cff565b6109b9565b005b6102d960048036038101906102d49190611e74565b6109cf565b005b6102f560048036038101906102f09190611b34565b610a31565b6040516103029190611adc565b60405180910390f35b61032560048036038101906103209190611f98565b610ad8565b005b610341600480360381019061033c9190611fe1565b610c1d565b60405161034e9190611a28565b60405180910390f35b60007f80ac58cd000000000000000000000000000000000000000000000000000000007bffffffffffffffffffffffffffffffffffffffffffffffffffffffff1916827bffffffffffffffffffffffffffffffffffffffffffffffffffffffff1916148061042257507f5b5e139f000000000000000000000000000000000000000000000000000000007bffffffffffffffffffffffffffffffffffffffffffffffffffffffff1916827bffffffffffffffffffffffffffffffffffffffffffffffffffffffff1916145b80610432575061043182610cb1565b5b9050919050565b60606000805461044890612050565b80601f016020809104026020016040519081016040528092919081815260200182805461047490612050565b80156104c15780601f10610496576101008083540402835291602001916104c1565b820191906000526020600020905b8154815290600101906020018083116104a457829003601f168201915b5050505050905090565b60006104d682610d1b565b610515576040517f08c379a000000000000000000000000000000000000000000000000000000000815260040161050c906120f3565b60405180910390fd5b6004600083815260200190815260200160002060009054906101000a900473ffffffffffffffffffffffffffffffffffffffff169050919050565b600061055b82610799565b90508073ffffffffffffffffffffffffffffffffffffffff168373ffffffffffffffffffffffffffffffffffffffff16036105cb576040517f08c379a00000000000000000000000000000000000000000000000000000000081526004016105c290612185565b60405180910390fd5b8073ffffffffffffffffffffffffffffffffffffffff166105ea610d87565b73ffffffffffffffffffffffffffffffffffffffff161480610619575061061881610613610d87565b610c1d565b5b610658576040517f08c379a000000000000000000000000000000000000000000000000000000000815260040161064f90612217565b60405180910390fd5b6106628383610d8f565b505050565b610678610672610d87565b82610e48565b6106b7576040517f08c379a00000000000000000000000000000000000000000000000000000000081526004016106ae906122a9565b60405180910390fd5b6106c2838383610f26565b505050565b600781815481106106d757600080fd5b906000526020600020016000915090508060000180546106f690612050565b80601f016020809104026020016040519081016040528092919081815260200182805461072290612050565b801561076f5780601f106107445761010080835404028352916020019161076f565b820191906000526020600020905b81548152906001019060200180831161075257829003601f168201915b5050505050905081565b610794838383604051806020016040528060008152506109cf565b505050565b6000806002600084815260200190815260200160002060009054906101000a900473ffffffffffffffffffffffffffffffffffffffff169050600073ffffffffffffffffffffffffffffffffffffffff168173ffffffffffffffffffffffffffffffffffffffff1603610841576040517f08c379a00000000000000000000000000000000000000000000000000000000081526004016108389061233b565b60405180910390fd5b80915050919050565b60008073ffffffffffffffffffffffffffffffffffffffff168273ffffffffffffffffffffffffffffffffffffffff16036108ba576040517f08c379a00000000000000000000000000000000000000000000000000000000081526004016108b1906123cd565b60405180910390fd5b600360008373ffffffffffffffffffffffffffffffffffffffff1673ffffffffffffffffffffffffffffffffffffffff168152602001908152602001600020549050919050565b600660009054906101000a900473ffffffffffffffffffffffffffffffffffffffff1681565b60606001805461093690612050565b80601f016020809104026020016040519081016040528092919081815260200182805461096290612050565b80156109af5780601f10610984576101008083540402835291602001916109af565b820191906000526020600020905b81548152906001019060200180831161099257829003601f168201915b5050505050905090565b6109cb6109c4610d87565b838361118c565b5050565b6109e06109da610d87565b83610e48565b610a1f576040517f08c379a0000000000000000000000000000000000000000000000000000000008152600401610a16906122a9565b60405180910390fd5b610a2b848484846112f8565b50505050565b6060610a3c82610d1b565b610a7b576040517f08c379a0000000000000000000000000000000000000000000000000000000008152600401610a729061245f565b60405180910390fd5b6000610a85611354565b90506000815111610aa55760405180602001604052806000815250610ad0565b80610aaf8461136b565b604051602001610ac09291906124bb565b6040516020818303038152906040525b915050919050565b600881604051610ae891906124df565b908152602001604051809103902060009054906101000a900460ff1615610b44576040517f08c379a0000000000000000000000000000000000000000000000000000000008152600401610b3b90612542565b60405180910390fd5b60006040518060200160405280838152509050600781908060018154018082558091505060019003906000526020600020016000909190919091506000820151816000019080519060200190610b9b9291906118d1565b50505060006001600780549050610bb29190612591565b9050610bbe33826114cb565b80600984604051610bcf91906124df565b9081526020016040518091039020819055506001600884604051610bf391906124df565b908152602001604051809103902060006101000a81548160ff021916908315150217905550505050565b6000600560008473ffffffffffffffffffffffffffffffffffffffff1673ffffffffffffffffffffffffffffffffffffffff16815260200190815260200160002060008373ffffffffffffffffffffffffffffffffffffffff1673ffffffffffffffffffffffffffffffffffffffff16815260200190815260200160002060009054906101000a900460ff16905092915050565b60007f01ffc9a7000000000000000000000000000000000000000000000000000000007bffffffffffffffffffffffffffffffffffffffffffffffffffffffff1916827bffffffffffffffffffffffffffffffffffffffffffffffffffffffff1916149050919050565b60008073ffffffffffffffffffffffffffffffffffffffff166002600084815260200190815260200160002060009054906101000a900473ffffffffffffffffffffffffffffffffffffffff1673ffffffffffffffffffffffffffffffffffffffff1614159050919050565b600033905090565b816004600083815260200190815260200160002060006101000a81548173ffffffffffffffffffffffffffffffffffffffff021916908373ffffffffffffffffffffffffffffffffffffffff160217905550808273ffffffffffffffffffffffffffffffffffffffff16610e0283610799565b73ffffffffffffffffffffffffffffffffffffffff167f8c5be1e5ebec7d5bd14f71427d1e84f3dd0314c0f7b2291e5b200ac8c7c3b92560405160405180910390a45050565b6000610e5382610d1b565b610e92576040517f08c379a0000000000000000000000000000000000000000000000000000000008152600401610e8990612637565b60405180910390fd5b6000610e9d83610799565b90508073ffffffffffffffffffffffffffffffffffffffff168473ffffffffffffffffffffffffffffffffffffffff161480610f0c57508373ffffffffffffffffffffffffffffffffffffffff16610ef4846104cb565b73ffffffffffffffffffffffffffffffffffffffff16145b80610f1d5750610f1c8185610c1d565b5b91505092915050565b8273ffffffffffffffffffffffffffffffffffffffff16610f4682610799565b73ffffffffffffffffffffffffffffffffffffffff1614610f9c576040517f08c379a0000000000000000000000000000000000000000000000000000000008152600401610f93906126c9565b60405180910390fd5b600073ffffffffffffffffffffffffffffffffffffffff168273ffffffffffffffffffffffffffffffffffffffff160361100b576040517f08c379a00000000000000000000000000000000000000000000000000000000081526004016110029061275b565b60405180910390fd5b6110168383836114e9565b611021600082610d8f565b6001600360008573ffffffffffffffffffffffffffffffffffffffff1673ffffffffffffffffffffffffffffffffffffffff16815260200190815260200160002060008282546110719190612591565b925050819055506001600360008473ffffffffffffffffffffffffffffffffffffffff1673ffffffffffffffffffffffffffffffffffffffff16815260200190815260200160002060008282546110c8919061277b565b92505081905550816002600083815260200190815260200160002060006101000a81548173ffffffffffffffffffffffffffffffffffffffff021916908373ffffffffffffffffffffffffffffffffffffffff160217905550808273ffffffffffffffffffffffffffffffffffffffff168473ffffffffffffffffffffffffffffffffffffffff167fddf252ad1be2c89b69c2b068fc378daa952ba7f163c4a11628f55a4df523b3ef60405160405180910390a46111878383836114ee565b505050565b8173ffffffffffffffffffffffffffffffffffffffff168373ffffffffffffffffffffffffffffffffffffffff16036111fa576040517f08c379a00000000000000000000000000000000000000000000000000000000081526004016111f19061281d565b60405180910390fd5b80600560008573ffffffffffffffffffffffffffffffffffffffff1673ffffffffffffffffffffffffffffffffffffffff16815260200190815260200160002060008473ffffffffffffffffffffffffffffffffffffffff1673ffffffffffffffffffffffffffffffffffffffff16815260200190815260200160002060006101000a81548160ff0219169083151502179055508173ffffffffffffffffffffffffffffffffffffffff168373ffffffffffffffffffffffffffffffffffffffff167f17307eab39ab6107e8899845ad3d59bd9653f200f220920489ca2b5937696c31836040516112eb9190611a28565b60405180910390a3505050565b611303848484610f26565b61130f848484846114f3565b61134e576040517f08c379a0000000000000000000000000000000000000000000000000000000008152600401611345906128af565b60405180910390fd5b50505050565b606060405180602001604052806000815250905090565b6060600082036113b2576040518060400160405280600181526020017f300000000000000000000000000000000000000000000000000000000000000081525090506114c6565b600082905060005b600082146113e45780806113cd906128cf565b915050600a826113dd9190612946565b91506113ba565b60008167ffffffffffffffff811115611400576113ff611d49565b5b6040519080825280601f01601f1916602001820160405280156114325781602001600182028036833780820191505090505b5090505b600085146114bf5760018261144b9190612591565b9150600a8561145a9190612977565b6030611466919061277b565b60f81b81838151811061147c5761147b6129a8565b5b60200101907effffffffffffffffffffffffffffffffffffffffffffffffffffffffffffff1916908160001a905350600a856114b89190612946565b9450611436565b8093505050505b919050565b6114e582826040518060200160405280600081525061167a565b5050565b505050565b505050565b60006115148473ffffffffffffffffffffffffffffffffffffffff166116d5565b1561166d578373ffffffffffffffffffffffffffffffffffffffff1663150b7a0261153d610d87565b8786866040518563ffffffff1660e01b815260040161155f9493929190612a2c565b6020604051808303816000875af192505050801561159b57506040513d601f19601f820116820180604052508101906115989190612a8d565b60015b61161d573d80600081146115cb576040519150601f19603f3d011682016040523d82523d6000602084013e6115d0565b606091505b506000815103611615576040517f08c379a000000000000000000000000000000000000000000000000000000000815260040161160c906128af565b60405180910390fd5b805181602001fd5b63150b7a0260e01b7bffffffffffffffffffffffffffffffffffffffffffffffffffffffff1916817bffffffffffffffffffffffffffffffffffffffffffffffffffffffff191614915050611672565b600190505b949350505050565b61168483836116f8565b61169160008484846114f3565b6116d0576040517f08c379a00000000000000000000000000000000000000000000000000000000081526004016116c7906128af565b60405180910390fd5b505050565b6000808273ffffffffffffffffffffffffffffffffffffffff163b119050919050565b600073ffffffffffffffffffffffffffffffffffffffff168273ffffffffffffffffffffffffffffffffffffffff1603611767576040517f08c379a000000000000000000000000000000000000000000000000000000000815260040161175e90612b06565b60405180910390fd5b61177081610d1b565b156117b0576040517f08c379a00000000000000000000000000000000000000000000000000000000081526004016117a790612b72565b60405180910390fd5b6117bc600083836114e9565b6001600360008473ffffffffffffffffffffffffffffffffffffffff1673ffffffffffffffffffffffffffffffffffffffff168152602001908152602001600020600082825461180c919061277b565b92505081905550816002600083815260200190815260200160002060006101000a81548173ffffffffffffffffffffffffffffffffffffffff021916908373ffffffffffffffffffffffffffffffffffffffff160217905550808273ffffffffffffffffffffffffffffffffffffffff16600073ffffffffffffffffffffffffffffffffffffffff167fddf252ad1be2c89b69c2b068fc378daa952ba7f163c4a11628f55a4df523b3ef60405160405180910390a46118cd600083836114ee565b5050565b8280546118dd90612050565b90600052602060002090601f0160209004810192826118ff5760008555611946565b82601f1061191857805160ff1916838001178555611946565b82800160010185558215611946579182015b8281111561194557825182559160200191906001019061192a565b5b5090506119539190611957565b5090565b5b80821115611970576000816000905550600101611958565b5090565b6000604051905090565b600080fd5b600080fd5b60007fffffffff0000000000000000000000000000000000000000000000000000000082169050919050565b6119bd81611988565b81146119c857600080fd5b50565b6000813590506119da816119b4565b92915050565b6000602082840312156119f6576119f561197e565b5b6000611a04848285016119cb565b91505092915050565b60008115159050919050565b611a2281611a0d565b82525050565b6000602082019050611a3d6000830184611a19565b92915050565b600081519050919050565b600082825260208201905092915050565b60005b83811015611a7d578082015181840152602081019050611a62565b83811115611a8c576000848401525b50505050565b6000601f19601f8301169050919050565b6000611aae82611a43565b611ab88185611a4e565b9350611ac8818560208601611a5f565b611ad181611a92565b840191505092915050565b60006020820190508181036000830152611af68184611aa3565b905092915050565b6000819050919050565b611b1181611afe565b8114611b1c57600080fd5b50565b600081359050611b2e81611b08565b92915050565b600060208284031215611b4a57611b4961197e565b5b6000611b5884828501611b1f565b91505092915050565b600073ffffffffffffffffffffffffffffffffffffffff82169050919050565b6000611b8c82611b61565b9050919050565b611b9c81611b81565b82525050565b6000602082019050611bb76000830184611b93565b92915050565b611bc681611b81565b8114611bd157600080fd5b50565b600081359050611be381611bbd565b92915050565b60008060408385031215611c0057611bff61197e565b5b6000611c0e85828601611bd4565b9250506020611c1f85828601611b1f565b9150509250929050565b600080600060608486031215611c4257611c4161197e565b5b6000611c5086828701611bd4565b9350506020611c6186828701611bd4565b9250506040611c7286828701611b1f565b9150509250925092565b600060208284031215611c9257611c9161197e565b5b6000611ca084828501611bd4565b91505092915050565b611cb281611afe565b82525050565b6000602082019050611ccd6000830184611ca9565b92915050565b611cdc81611a0d565b8114611ce757600080fd5b50565b600081359050611cf981611cd3565b92915050565b60008060408385031215611d1657611d1561197e565b5b6000611d2485828601611bd4565b9250506020611d3585828601611cea565b9150509250929050565b600080fd5b600080fd5b7f4e487b7100000000000000000000000000000000000000000000000000000000600052604160045260246000fd5b611d8182611a92565b810181811067ffffffffffffffff82111715611da057611d9f611d49565b5b80604052505050565b6000611db3611974565b9050611dbf8282611d78565b919050565b600067ffffffffffffffff821115611ddf57611dde611d49565b5b611de882611a92565b9050602081019050919050565b82818337600083830152505050565b6000611e17611e1284611dc4565b611da9565b905082815260208101848484011115611e3357611e32611d44565b5b611e3e848285611df5565b509392505050565b600082601f830112611e5b57611e5a611d3f565b5b8135611e6b848260208601611e04565b91505092915050565b60008060008060808587031215611e8e57611e8d61197e565b5b6000611e9c87828801611bd4565b9450506020611ead87828801611bd4565b9350506040611ebe87828801611b1f565b925050606085013567ffffffffffffffff811115611edf57611ede611983565b5b611eeb87828801611e46565b91505092959194509250565b600067ffffffffffffffff821115611f1257611f11611d49565b5b611f1b82611a92565b9050602081019050919050565b6000611f3b611f3684611ef7565b611da9565b905082815260208101848484011115611f5757611f56611d44565b5b611f62848285611df5565b509392505050565b600082601f830112611f7f57611f7e611d3f565b5b8135611f8f848260208601611f28565b91505092915050565b600060208284031215611fae57611fad61197e565b5b600082013567ffffffffffffffff811115611fcc57611fcb611983565b5b611fd884828501611f6a565b91505092915050565b60008060408385031215611ff857611ff761197e565b5b600061200685828601611bd4565b925050602061201785828601611bd4565b9150509250929050565b7f4e487b7100000000000000000000000000000000000000000000000000000000600052602260045260246000fd5b6000600282049050600182168061206857607f821691505b60208210810361207b5761207a612021565b5b50919050565b7f4552433732313a20617070726f76656420717565727920666f72206e6f6e657860008201527f697374656e7420746f6b656e0000000000000000000000000000000000000000602082015250565b60006120dd602c83611a4e565b91506120e882612081565b604082019050919050565b6000602082019050818103600083015261210c816120d0565b9050919050565b7f4552433732313a20617070726f76616c20746f2063757272656e74206f776e6560008201527f7200000000000000000000000000000000000000000000000000000000000000602082015250565b600061216f602183611a4e565b915061217a82612113565b604082019050919050565b6000602082019050818103600083015261219e81612162565b9050919050565b7f4552433732313a20617070726f76652063616c6c6572206973206e6f74206f7760008201527f6e6572206e6f7220617070726f76656420666f7220616c6c0000000000000000602082015250565b6000612201603883611a4e565b915061220c826121a5565b604082019050919050565b60006020820190508181036000830152612230816121f4565b9050919050565b7f4552433732313a207472616e736665722063616c6c6572206973206e6f74206f60008201527f776e6572206e6f7220617070726f766564000000000000000000000000000000602082015250565b6000612293603183611a4e565b915061229e82612237565b604082019050919050565b600060208201905081810360008301526122c281612286565b9050919050565b7f4552433732313a206f776e657220717565727920666f72206e6f6e657869737460008201527f656e7420746f6b656e0000000000000000000000000000000000000000000000602082015250565b6000612325602983611a4e565b9150612330826122c9565b604082019050919050565b6000602082019050818103600083015261235481612318565b9050919050565b7f4552433732313a2062616c616e636520717565727920666f7220746865207a6560008201527f726f206164647265737300000000000000000000000000000000000000000000602082015250565b60006123b7602a83611a4e565b91506123c28261235b565b604082019050919050565b600060208201905081810360008301526123e6816123aa565b9050919050565b7f4552433732314d657461646174613a2055524920717565727920666f72206e6f60008201527f6e6578697374656e7420746f6b656e0000000000000000000000000000000000602082015250565b6000612449602f83611a4e565b9150612454826123ed565b604082019050919050565b600060208201905081810360008301526124788161243c565b9050919050565b600081905092915050565b600061249582611a43565b61249f818561247f565b93506124af818560208601611a5f565b80840191505092915050565b60006124c7828561248a565b91506124d3828461248a565b91508190509392505050565b60006124eb828461248a565b915081905092915050565b7f6e616d652069736e277420756e69717565000000000000000000000000000000600082015250565b600061252c601183611a4e565b9150612537826124f6565b602082019050919050565b6000602082019050818103600083015261255b8161251f565b9050919050565b7f4e487b7100000000000000000000000000000000000000000000000000000000600052601160045260246000fd5b600061259c82611afe565b91506125a783611afe565b9250828210156125ba576125b9612562565b5b828203905092915050565b7f4552433732313a206f70657261746f7220717565727920666f72206e6f6e657860008201527f697374656e7420746f6b656e0000000000000000000000000000000000000000602082015250565b6000612621602c83611a4e565b915061262c826125c5565b604082019050919050565b6000602082019050818103600083015261265081612614565b9050919050565b7f4552433732313a207472616e736665722066726f6d20696e636f72726563742060008201527f6f776e6572000000000000000000000000000000000000000000000000000000602082015250565b60006126b3602583611a4e565b91506126be82612657565b604082019050919050565b600060208201905081810360008301526126e2816126a6565b9050919050565b7f4552433732313a207472616e7366657220746f20746865207a65726f2061646460008201527f7265737300000000000000000000000000000000000000000000000000000000602082015250565b6000612745602483611a4e565b9150612750826126e9565b604082019050919050565b6000602082019050818103600083015261277481612738565b9050919050565b600061278682611afe565b915061279183611afe565b9250827fffffffffffffffffffffffffffffffffffffffffffffffffffffffffffffffff038211156127c6576127c5612562565b5b828201905092915050565b7f4552433732313a20617070726f766520746f2063616c6c657200000000000000600082015250565b6000612807601983611a4e565b9150612812826127d1565b602082019050919050565b60006020820190508181036000830152612836816127fa565b9050919050565b7f4552433732313a207472616e7366657220746f206e6f6e20455243373231526560008201527f63656976657220696d706c656d656e7465720000000000000000000000000000602082015250565b6000612899603283611a4e565b91506128a48261283d565b604082019050919050565b600060208201905081810360008301526128c88161288c565b9050919050565b60006128da82611afe565b91507fffffffffffffffffffffffffffffffffffffffffffffffffffffffffffffffff820361290c5761290b612562565b5b600182019050919050565b7f4e487b7100000000000000000000000000000000000000000000000000000000600052601260045260246000fd5b600061295182611afe565b915061295c83611afe565b92508261296c5761296b612917565b5b828204905092915050565b600061298282611afe565b915061298d83611afe565b92508261299d5761299c612917565b5b828206905092915050565b7f4e487b7100000000000000000000000000000000000000000000000000000000600052603260045260246000fd5b600081519050919050565b600082825260208201905092915050565b60006129fe826129d7565b612a0881856129e2565b9350612a18818560208601611a5f565b612a2181611a92565b840191505092915050565b6000608082019050612a416000830187611b93565b612a4e6020830186611b93565b612a5b6040830185611ca9565b8181036060830152612a6d81846129f3565b905095945050505050565b600081519050612a87816119b4565b92915050565b600060208284031215612aa357612aa261197e565b5b6000612ab184828501612a78565b91505092915050565b7f4552433732313a206d696e7420746f20746865207a65726f2061646472657373600082015250565b6000612af0602083611a4e565b9150612afb82612aba565b602082019050919050565b60006020820190508181036000830152612b1f81612ae3565b9050919050565b7f4552433732313a20746f6b656e20616c7265616479206d696e74656400000000600082015250565b6000612b5c601c83611a4e565b9150612b6782612b26565b602082019050919050565b60006020820190508181036000830152612b8b81612b4f565b905091905056fea2646970667358221220a9eca7143cc514c7fba91b3a83f020e4c2bd8c8f2a05b4094398c761375445f464736f6c634300080d0033",
  "immutableReferences": {},
  "source": "// SPDX-License-Identifier: MIT\npragma solidity >=0.8.0 <0.9.0;\n\nimport \"@openzeppelin/contracts/token/ERC721/ERC721.sol\";\n\ncontract SimpleNFT is ERC721 {\n    address public owner = msg.sender;\n\n    struct Data {\n        string name;\n    }\n\n    Data[] public dataEntries;\n\n    mapping(string => bool) private _nameExists;\n    mapping(string => uint256) private _nameData;\n\n    constructor() ERC721(\"Simple NFT\", \"SNFT\") {}\n\n    function mint(string memory name) public {\n        require(!_nameExists[name], \"name isn't unique\");\n\n        Data memory data = Data(name);\n\n        dataEntries.push(data);\n\n        uint256 id = dataEntries.length - 1;\n\n        _safeMint(msg.sender, id);\n\n        _nameData[name] = id;\n        _nameExists[name] = true;\n    }\n}\n",
  "sourcePath": "C:\\projects\\own\\ethereum\\hello-ethereum\\blockchain\\contracts\\SimpleNFT.sol",
  "compiler": {
    "name": "solc",
    "version": "0.8.13+commit.abaa5c0e.Emscripten.clang"
  },
  "schemaVersion": "3.4.7",
  "updatedAt": "2022-04-19T06:44:37.359Z",
  "networkType": "ethereum",
  "devdoc": {
    "kind": "dev",
    "methods": {
      "approve(address,uint256)": {
        "details": "See {IERC721-approve}."
      },
      "balanceOf(address)": {
        "details": "See {IERC721-balanceOf}."
      },
      "getApproved(uint256)": {
        "details": "See {IERC721-getApproved}."
      },
      "isApprovedForAll(address,address)": {
        "details": "See {IERC721-isApprovedForAll}."
      },
      "name()": {
        "details": "See {IERC721Metadata-name}."
      },
      "ownerOf(uint256)": {
        "details": "See {IERC721-ownerOf}."
      },
      "safeTransferFrom(address,address,uint256)": {
        "details": "See {IERC721-safeTransferFrom}."
      },
      "safeTransferFrom(address,address,uint256,bytes)": {
        "details": "See {IERC721-safeTransferFrom}."
      },
      "setApprovalForAll(address,bool)": {
        "details": "See {IERC721-setApprovalForAll}."
      },
      "supportsInterface(bytes4)": {
        "details": "See {IERC165-supportsInterface}."
      },
      "symbol()": {
        "details": "See {IERC721Metadata-symbol}."
      },
      "tokenURI(uint256)": {
        "details": "See {IERC721Metadata-tokenURI}."
      },
      "transferFrom(address,address,uint256)": {
        "details": "See {IERC721-transferFrom}."
      }
    },
    "version": 1
  },
  "userdoc": {
    "kind": "user",
    "methods": {},
    "version": 1
  }
}