{
  "contractName": "SimpleNFT",
  "abi": [
    {
      "inputs": [],
      "stateMutability": "nonpayable",
      "type": "constructor"
    },
    {
      "anonymous": false,
      "inputs": [
        {
          "indexed": true,
          "internalType": "address",
          "name": "owner",
          "type": "address"
        },
        {
          "indexed": true,
          "internalType": "address",
          "name": "approved",
          "type": "address"
        },
        {
          "indexed": true,
          "internalType": "uint256",
          "name": "tokenId",
          "type": "uint256"
        }
      ],
      "name": "Approval",
      "type": "event"
    },
    {
      "anonymous": false,
      "inputs": [
        {
          "indexed": true,
          "internalType": "address",
          "name": "owner",
          "type": "address"
        },
        {
          "indexed": true,
          "internalType": "address",
          "name": "operator",
          "type": "address"
        },
        {
          "indexed": false,
          "internalType": "bool",
          "name": "approved",
          "type": "bool"
        }
      ],
      "name": "ApprovalForAll",
      "type": "event"
    },
    {
      "anonymous": false,
      "inputs": [
        {
          "indexed": true,
          "internalType": "address",
          "name": "from",
          "type": "address"
        },
        {
          "indexed": true,
          "internalType": "address",
          "name": "to",
          "type": "address"
        },
        {
          "indexed": true,
          "internalType": "uint256",
          "name": "tokenId",
          "type": "uint256"
        }
      ],
      "name": "Transfer",
      "type": "event"
    },
    {
      "inputs": [
        {
          "internalType": "address",
          "name": "to",
          "type": "address"
        },
        {
          "internalType": "uint256",
          "name": "tokenId",
          "type": "uint256"
        }
      ],
      "name": "approve",
      "outputs": [],
      "stateMutability": "nonpayable",
      "type": "function"
    },
    {
      "inputs": [
        {
          "internalType": "address",
          "name": "owner",
          "type": "address"
        }
      ],
      "name": "balanceOf",
      "outputs": [
        {
          "internalType": "uint256",
          "name": "",
          "type": "uint256"
        }
      ],
      "stateMutability": "view",
      "type": "function",
      "constant": true
    },
    {
      "inputs": [
        {
          "internalType": "uint256",
          "name": "",
          "type": "uint256"
        }
      ],
      "name": "dataEntries",
      "outputs": [
        {
          "internalType": "string",
          "name": "name",
          "type": "string"
        }
      ],
      "stateMutability": "view",
      "type": "function",
      "constant": true
    },
    {
      "inputs": [
        {
          "internalType": "uint256",
          "name": "tokenId",
          "type": "uint256"
        }
      ],
      "name": "getApproved",
      "outputs": [
        {
          "internalType": "address",
          "name": "",
          "type": "address"
        }
      ],
      "stateMutability": "view",
      "type": "function",
      "constant": true
    },
    {
      "inputs": [
        {
          "internalType": "address",
          "name": "owner",
          "type": "address"
        },
        {
          "internalType": "address",
          "name": "operator",
          "type": "address"
        }
      ],
      "name": "isApprovedForAll",
      "outputs": [
        {
          "internalType": "bool",
          "name": "",
          "type": "bool"
        }
      ],
      "stateMutability": "view",
      "type": "function",
      "constant": true
    },
    {
      "inputs": [],
      "name": "name",
      "outputs": [
        {
          "internalType": "string",
          "name": "",
          "type": "string"
        }
      ],
      "stateMutability": "view",
      "type": "function",
      "constant": true
    },
    {
      "inputs": [],
      "name": "owner",
      "outputs": [
        {
          "internalType": "address",
          "name": "",
          "type": "address"
        }
      ],
      "stateMutability": "view",
      "type": "function",
      "constant": true
    },
    {
      "inputs": [
        {
          "internalType": "uint256",
          "name": "tokenId",
          "type": "uint256"
        }
      ],
      "name": "ownerOf",
      "outputs": [
        {
          "internalType": "address",
          "name": "",
          "type": "address"
        }
      ],
      "stateMutability": "view",
      "type": "function",
      "constant": true
    },
    {
      "inputs": [
        {
          "internalType": "address",
          "name": "from",
          "type": "address"
        },
        {
          "internalType": "address",
          "name": "to",
          "type": "address"
        },
        {
          "internalType": "uint256",
          "name": "tokenId",
          "type": "uint256"
        }
      ],
      "name": "safeTransferFrom",
      "outputs": [],
      "stateMutability": "nonpayable",
      "type": "function"
    },
    {
      "inputs": [
        {
          "internalType": "address",
          "name": "from",
          "type": "address"
        },
        {
          "internalType": "address",
          "name": "to",
          "type": "address"
        },
        {
          "internalType": "uint256",
          "name": "tokenId",
          "type": "uint256"
        },
        {
          "internalType": "bytes",
          "name": "_data",
          "type": "bytes"
        }
      ],
      "name": "safeTransferFrom",
      "outputs": [],
      "stateMutability": "nonpayable",
      "type": "function"
    },
    {
      "inputs": [
        {
          "internalType": "address",
          "name": "operator",
          "type": "address"
        },
        {
          "internalType": "bool",
          "name": "approved",
          "type": "bool"
        }
      ],
      "name": "setApprovalForAll",
      "outputs": [],
      "stateMutability": "nonpayable",
      "type": "function"
    },
    {
      "inputs": [
        {
          "internalType": "bytes4",
          "name": "interfaceId",
          "type": "bytes4"
        }
      ],
      "name": "supportsInterface",
      "outputs": [
        {
          "internalType": "bool",
          "name": "",
          "type": "bool"
        }
      ],
      "stateMutability": "view",
      "type": "function",
      "constant": true
    },
    {
      "inputs": [],
      "name": "symbol",
      "outputs": [
        {
          "internalType": "string",
          "name": "",
          "type": "string"
        }
      ],
      "stateMutability": "view",
      "type": "function",
      "constant": true
    },
    {
      "inputs": [
        {
          "internalType": "uint256",
          "name": "tokenId",
          "type": "uint256"
        }
      ],
      "name": "tokenURI",
      "outputs": [
        {
          "internalType": "string",
          "name": "",
          "type": "string"
        }
      ],
      "stateMutability": "view",
      "type": "function",
      "constant": true
    },
    {
      "inputs": [
        {
          "internalType": "address",
          "name": "from",
          "type": "address"
        },
        {
          "internalType": "address",
          "name": "to",
          "type": "address"
        },
        {
          "internalType": "uint256",
          "name": "tokenId",
          "type": "uint256"
        }
      ],
      "name": "transferFrom",
      "outputs": [],
      "stateMutability": "nonpayable",
      "type": "function"
    },
    {
      "inputs": [
        {
          "internalType": "string",
          "name": "name",
          "type": "string"
        }
      ],
      "name": "mint",
      "outputs": [],
      "stateMutability": "nonpayable",
      "type": "function"
    },
    {
      "inputs": [],
      "name": "getTotalCount",
      "outputs": [
        {
          "internalType": "uint256",
          "name": "",
          "type": "uint256"
        }
      ],
      "stateMutability": "view",
      "type": "function",
      "constant": true
    }
  ],
  "bytecode": "0x608060405233600660006101000a81548173ffffffffffffffffffffffffffffffffffffffff021916908373ffffffffffffffffffffffffffffffffffffffff1602179055503480156200005257600080fd5b506040518060400160405280600a81526020017f53696d706c65204e4654000000000000000000000000000000000000000000008152506040518060400160405280600481526020017f534e4654000000000000000000000000000000000000000000000000000000008152508160009080519060200190620000d7929190620000f9565b508060019080519060200190620000f0929190620000f9565b5050506200020d565b8280546200010790620001d8565b90600052602060002090601f0160209004810192826200012b576000855562000177565b82601f106200014657805160ff191683800117855562000177565b8280016001018555821562000177579182015b828111156200017657825182559160200191906001019062000159565b5b5090506200018691906200018a565b5090565b5b80821115620001a55760008160009055506001016200018b565b5090565b7f4e487b7100000000000000000000000000000000000000000000000000000000600052602260045260246000fd5b60006002820490506001821680620001f157607f821691505b602082108103620002075762000206620001a9565b5b50919050565b612ad9806200021d6000396000f3fe608060405234801561001057600080fd5b506004361061010b5760003560e01c80636352211e116100a2578063a22cb46511610071578063a22cb465146102cc578063b88d4fde146102e8578063c87b56dd14610304578063d85d3d2714610334578063e985e9c5146103505761010b565b80636352211e1461023057806370a08231146102605780638da5cb5b1461029057806395d89b41146102ae5761010b565b806323b872dd116100de57806323b872dd146101aa578063325f4658146101c657806342842e0e146101f657806356d42bb3146102125761010b565b806301ffc9a71461011057806306fdde0314610140578063081812fc1461015e578063095ea7b31461018e575b600080fd5b61012a60048036038101906101259190611974565b610380565b60405161013791906119bc565b60405180910390f35b610148610462565b6040516101559190611a70565b60405180910390f35b61017860048036038101906101739190611ac8565b6104f4565b6040516101859190611b36565b60405180910390f35b6101a860048036038101906101a39190611b7d565b610579565b005b6101c460048036038101906101bf9190611bbd565b610690565b005b6101e060048036038101906101db9190611ac8565b6106f0565b6040516101ed9190611a70565b60405180910390f35b610210600480360381019061020b9190611bbd565b6107a2565b005b61021a6107c2565b6040516102279190611c1f565b60405180910390f35b61024a60048036038101906102459190611ac8565b6107d3565b6040516102579190611b36565b60405180910390f35b61027a60048036038101906102759190611c3a565b610884565b6040516102879190611c1f565b60405180910390f35b61029861093b565b6040516102a59190611b36565b60405180910390f35b6102b6610961565b6040516102c39190611a70565b60405180910390f35b6102e660048036038101906102e19190611c93565b6109f3565b005b61030260048036038101906102fd9190611e08565b610a09565b005b61031e60048036038101906103199190611ac8565b610a6b565b60405161032b9190611a70565b60405180910390f35b61034e60048036038101906103499190611f2c565b610b12565b005b61036a60048036038101906103659190611f75565b610b8d565b60405161037791906119bc565b60405180910390f35b60007f80ac58cd000000000000000000000000000000000000000000000000000000007bffffffffffffffffffffffffffffffffffffffffffffffffffffffff1916827bffffffffffffffffffffffffffffffffffffffffffffffffffffffff1916148061044b57507f5b5e139f000000000000000000000000000000000000000000000000000000007bffffffffffffffffffffffffffffffffffffffffffffffffffffffff1916827bffffffffffffffffffffffffffffffffffffffffffffffffffffffff1916145b8061045b575061045a82610c21565b5b9050919050565b60606000805461047190611fe4565b80601f016020809104026020016040519081016040528092919081815260200182805461049d90611fe4565b80156104ea5780601f106104bf576101008083540402835291602001916104ea565b820191906000526020600020905b8154815290600101906020018083116104cd57829003601f168201915b5050505050905090565b60006104ff82610c8b565b61053e576040517f08c379a000000000000000000000000000000000000000000000000000000000815260040161053590612087565b60405180910390fd5b6004600083815260200190815260200160002060009054906101000a900473ffffffffffffffffffffffffffffffffffffffff169050919050565b6000610584826107d3565b90508073ffffffffffffffffffffffffffffffffffffffff168373ffffffffffffffffffffffffffffffffffffffff16036105f4576040517f08c379a00000000000000000000000000000000000000000000000000000000081526004016105eb90612119565b60405180910390fd5b8073ffffffffffffffffffffffffffffffffffffffff16610613610cf7565b73ffffffffffffffffffffffffffffffffffffffff16148061064257506106418161063c610cf7565b610b8d565b5b610681576040517f08c379a0000000000000000000000000000000000000000000000000000000008152600401610678906121ab565b60405180910390fd5b61068b8383610cff565b505050565b6106a161069b610cf7565b82610db8565b6106e0576040517f08c379a00000000000000000000000000000000000000000000000000000000081526004016106d79061223d565b60405180910390fd5b6106eb838383610e96565b505050565b6007818154811061070057600080fd5b9060005260206000200160009150905080600001805461071f90611fe4565b80601f016020809104026020016040519081016040528092919081815260200182805461074b90611fe4565b80156107985780601f1061076d57610100808354040283529160200191610798565b820191906000526020600020905b81548152906001019060200180831161077b57829003601f168201915b5050505050905081565b6107bd83838360405180602001604052806000815250610a09565b505050565b60006107ce60086110fc565b905090565b6000806002600084815260200190815260200160002060009054906101000a900473ffffffffffffffffffffffffffffffffffffffff169050600073ffffffffffffffffffffffffffffffffffffffff168173ffffffffffffffffffffffffffffffffffffffff160361087b576040517f08c379a0000000000000000000000000000000000000000000000000000000008152600401610872906122cf565b60405180910390fd5b80915050919050565b60008073ffffffffffffffffffffffffffffffffffffffff168273ffffffffffffffffffffffffffffffffffffffff16036108f4576040517f08c379a00000000000000000000000000000000000000000000000000000000081526004016108eb90612361565b60405180910390fd5b600360008373ffffffffffffffffffffffffffffffffffffffff1673ffffffffffffffffffffffffffffffffffffffff168152602001908152602001600020549050919050565b600660009054906101000a900473ffffffffffffffffffffffffffffffffffffffff1681565b60606001805461097090611fe4565b80601f016020809104026020016040519081016040528092919081815260200182805461099c90611fe4565b80156109e95780601f106109be576101008083540402835291602001916109e9565b820191906000526020600020905b8154815290600101906020018083116109cc57829003601f168201915b5050505050905090565b610a056109fe610cf7565b838361110a565b5050565b610a1a610a14610cf7565b83610db8565b610a59576040517f08c379a0000000000000000000000000000000000000000000000000000000008152600401610a509061223d565b60405180910390fd5b610a6584848484611276565b50505050565b6060610a7682610c8b565b610ab5576040517f08c379a0000000000000000000000000000000000000000000000000000000008152600401610aac906123f3565b60405180910390fd5b6000610abf6112d2565b90506000815111610adf5760405180602001604052806000815250610b0a565b80610ae9846112e9565b604051602001610afa92919061244f565b6040516020818303038152906040525b915050919050565b60006040518060200160405280838152509050600781908060018154018082558091505060019003906000526020600020016000909190919091506000820151816000019080519060200190610b69929190611865565b505050610b7f33610b7a60086110fc565b611449565b610b896008611467565b5050565b6000600560008473ffffffffffffffffffffffffffffffffffffffff1673ffffffffffffffffffffffffffffffffffffffff16815260200190815260200160002060008373ffffffffffffffffffffffffffffffffffffffff1673ffffffffffffffffffffffffffffffffffffffff16815260200190815260200160002060009054906101000a900460ff16905092915050565b60007f01ffc9a7000000000000000000000000000000000000000000000000000000007bffffffffffffffffffffffffffffffffffffffffffffffffffffffff1916827bffffffffffffffffffffffffffffffffffffffffffffffffffffffff1916149050919050565b60008073ffffffffffffffffffffffffffffffffffffffff166002600084815260200190815260200160002060009054906101000a900473ffffffffffffffffffffffffffffffffffffffff1673ffffffffffffffffffffffffffffffffffffffff1614159050919050565b600033905090565b816004600083815260200190815260200160002060006101000a81548173ffffffffffffffffffffffffffffffffffffffff021916908373ffffffffffffffffffffffffffffffffffffffff160217905550808273ffffffffffffffffffffffffffffffffffffffff16610d72836107d3565b73ffffffffffffffffffffffffffffffffffffffff167f8c5be1e5ebec7d5bd14f71427d1e84f3dd0314c0f7b2291e5b200ac8c7c3b92560405160405180910390a45050565b6000610dc382610c8b565b610e02576040517f08c379a0000000000000000000000000000000000000000000000000000000008152600401610df9906124e5565b60405180910390fd5b6000610e0d836107d3565b90508073ffffffffffffffffffffffffffffffffffffffff168473ffffffffffffffffffffffffffffffffffffffff161480610e7c57508373ffffffffffffffffffffffffffffffffffffffff16610e64846104f4565b73ffffffffffffffffffffffffffffffffffffffff16145b80610e8d5750610e8c8185610b8d565b5b91505092915050565b8273ffffffffffffffffffffffffffffffffffffffff16610eb6826107d3565b73ffffffffffffffffffffffffffffffffffffffff1614610f0c576040517f08c379a0000000000000000000000000000000000000000000000000000000008152600401610f0390612577565b60405180910390fd5b600073ffffffffffffffffffffffffffffffffffffffff168273ffffffffffffffffffffffffffffffffffffffff1603610f7b576040517f08c379a0000000000000000000000000000000000000000000000000000000008152600401610f7290612609565b60405180910390fd5b610f8683838361147d565b610f91600082610cff565b6001600360008573ffffffffffffffffffffffffffffffffffffffff1673ffffffffffffffffffffffffffffffffffffffff1681526020019081526020016000206000828254610fe19190612658565b925050819055506001600360008473ffffffffffffffffffffffffffffffffffffffff1673ffffffffffffffffffffffffffffffffffffffff1681526020019081526020016000206000828254611038919061268c565b92505081905550816002600083815260200190815260200160002060006101000a81548173ffffffffffffffffffffffffffffffffffffffff021916908373ffffffffffffffffffffffffffffffffffffffff160217905550808273ffffffffffffffffffffffffffffffffffffffff168473ffffffffffffffffffffffffffffffffffffffff167fddf252ad1be2c89b69c2b068fc378daa952ba7f163c4a11628f55a4df523b3ef60405160405180910390a46110f7838383611482565b505050565b600081600001549050919050565b8173ffffffffffffffffffffffffffffffffffffffff168373ffffffffffffffffffffffffffffffffffffffff1603611178576040517f08c379a000000000000000000000000000000000000000000000000000000000815260040161116f9061272e565b60405180910390fd5b80600560008573ffffffffffffffffffffffffffffffffffffffff1673ffffffffffffffffffffffffffffffffffffffff16815260200190815260200160002060008473ffffffffffffffffffffffffffffffffffffffff1673ffffffffffffffffffffffffffffffffffffffff16815260200190815260200160002060006101000a81548160ff0219169083151502179055508173ffffffffffffffffffffffffffffffffffffffff168373ffffffffffffffffffffffffffffffffffffffff167f17307eab39ab6107e8899845ad3d59bd9653f200f220920489ca2b5937696c318360405161126991906119bc565b60405180910390a3505050565b611281848484610e96565b61128d84848484611487565b6112cc576040517f08c379a00000000000000000000000000000000000000000000000000000000081526004016112c3906127c0565b60405180910390fd5b50505050565b606060405180602001604052806000815250905090565b606060008203611330576040518060400160405280600181526020017f30000000000000000000000000000000000000000000000000000000000000008152509050611444565b600082905060005b6000821461136257808061134b906127e0565b915050600a8261135b9190612857565b9150611338565b60008167ffffffffffffffff81111561137e5761137d611cdd565b5b6040519080825280601f01601f1916602001820160405280156113b05781602001600182028036833780820191505090505b5090505b6000851461143d576001826113c99190612658565b9150600a856113d89190612888565b60306113e4919061268c565b60f81b8183815181106113fa576113f96128b9565b5b60200101907effffffffffffffffffffffffffffffffffffffffffffffffffffffffffffff1916908160001a905350600a856114369190612857565b94506113b4565b8093505050505b919050565b61146382826040518060200160405280600081525061160e565b5050565b6001816000016000828254019250508190555050565b505050565b505050565b60006114a88473ffffffffffffffffffffffffffffffffffffffff16611669565b15611601578373ffffffffffffffffffffffffffffffffffffffff1663150b7a026114d1610cf7565b8786866040518563ffffffff1660e01b81526004016114f3949392919061293d565b6020604051808303816000875af192505050801561152f57506040513d601f19601f8201168201806040525081019061152c919061299e565b60015b6115b1573d806000811461155f576040519150601f19603f3d011682016040523d82523d6000602084013e611564565b606091505b5060008151036115a9576040517f08c379a00000000000000000000000000000000000000000000000000000000081526004016115a0906127c0565b60405180910390fd5b805181602001fd5b63150b7a0260e01b7bffffffffffffffffffffffffffffffffffffffffffffffffffffffff1916817bffffffffffffffffffffffffffffffffffffffffffffffffffffffff191614915050611606565b600190505b949350505050565b611618838361168c565b6116256000848484611487565b611664576040517f08c379a000000000000000000000000000000000000000000000000000000000815260040161165b906127c0565b60405180910390fd5b505050565b6000808273ffffffffffffffffffffffffffffffffffffffff163b119050919050565b600073ffffffffffffffffffffffffffffffffffffffff168273ffffffffffffffffffffffffffffffffffffffff16036116fb576040517f08c379a00000000000000000000000000000000000000000000000000000000081526004016116f290612a17565b60405180910390fd5b61170481610c8b565b15611744576040517f08c379a000000000000000000000000000000000000000000000000000000000815260040161173b90612a83565b60405180910390fd5b6117506000838361147d565b6001600360008473ffffffffffffffffffffffffffffffffffffffff1673ffffffffffffffffffffffffffffffffffffffff16815260200190815260200160002060008282546117a0919061268c565b92505081905550816002600083815260200190815260200160002060006101000a81548173ffffffffffffffffffffffffffffffffffffffff021916908373ffffffffffffffffffffffffffffffffffffffff160217905550808273ffffffffffffffffffffffffffffffffffffffff16600073ffffffffffffffffffffffffffffffffffffffff167fddf252ad1be2c89b69c2b068fc378daa952ba7f163c4a11628f55a4df523b3ef60405160405180910390a461186160008383611482565b5050565b82805461187190611fe4565b90600052602060002090601f01602090048101928261189357600085556118da565b82601f106118ac57805160ff19168380011785556118da565b828001600101855582156118da579182015b828111156118d95782518255916020019190600101906118be565b5b5090506118e791906118eb565b5090565b5b808211156119045760008160009055506001016118ec565b5090565b6000604051905090565b600080fd5b600080fd5b60007fffffffff0000000000000000000000000000000000000000000000000000000082169050919050565b6119518161191c565b811461195c57600080fd5b50565b60008135905061196e81611948565b92915050565b60006020828403121561198a57611989611912565b5b60006119988482850161195f565b91505092915050565b60008115159050919050565b6119b6816119a1565b82525050565b60006020820190506119d160008301846119ad565b92915050565b600081519050919050565b600082825260208201905092915050565b60005b83811015611a115780820151818401526020810190506119f6565b83811115611a20576000848401525b50505050565b6000601f19601f8301169050919050565b6000611a42826119d7565b611a4c81856119e2565b9350611a5c8185602086016119f3565b611a6581611a26565b840191505092915050565b60006020820190508181036000830152611a8a8184611a37565b905092915050565b6000819050919050565b611aa581611a92565b8114611ab057600080fd5b50565b600081359050611ac281611a9c565b92915050565b600060208284031215611ade57611add611912565b5b6000611aec84828501611ab3565b91505092915050565b600073ffffffffffffffffffffffffffffffffffffffff82169050919050565b6000611b2082611af5565b9050919050565b611b3081611b15565b82525050565b6000602082019050611b4b6000830184611b27565b92915050565b611b5a81611b15565b8114611b6557600080fd5b50565b600081359050611b7781611b51565b92915050565b60008060408385031215611b9457611b93611912565b5b6000611ba285828601611b68565b9250506020611bb385828601611ab3565b9150509250929050565b600080600060608486031215611bd657611bd5611912565b5b6000611be486828701611b68565b9350506020611bf586828701611b68565b9250506040611c0686828701611ab3565b9150509250925092565b611c1981611a92565b82525050565b6000602082019050611c346000830184611c10565b92915050565b600060208284031215611c5057611c4f611912565b5b6000611c5e84828501611b68565b91505092915050565b611c70816119a1565b8114611c7b57600080fd5b50565b600081359050611c8d81611c67565b92915050565b60008060408385031215611caa57611ca9611912565b5b6000611cb885828601611b68565b9250506020611cc985828601611c7e565b9150509250929050565b600080fd5b600080fd5b7f4e487b7100000000000000000000000000000000000000000000000000000000600052604160045260246000fd5b611d1582611a26565b810181811067ffffffffffffffff82111715611d3457611d33611cdd565b5b80604052505050565b6000611d47611908565b9050611d538282611d0c565b919050565b600067ffffffffffffffff821115611d7357611d72611cdd565b5b611d7c82611a26565b9050602081019050919050565b82818337600083830152505050565b6000611dab611da684611d58565b611d3d565b905082815260208101848484011115611dc757611dc6611cd8565b5b611dd2848285611d89565b509392505050565b600082601f830112611def57611dee611cd3565b5b8135611dff848260208601611d98565b91505092915050565b60008060008060808587031215611e2257611e21611912565b5b6000611e3087828801611b68565b9450506020611e4187828801611b68565b9350506040611e5287828801611ab3565b925050606085013567ffffffffffffffff811115611e7357611e72611917565b5b611e7f87828801611dda565b91505092959194509250565b600067ffffffffffffffff821115611ea657611ea5611cdd565b5b611eaf82611a26565b9050602081019050919050565b6000611ecf611eca84611e8b565b611d3d565b905082815260208101848484011115611eeb57611eea611cd8565b5b611ef6848285611d89565b509392505050565b600082601f830112611f1357611f12611cd3565b5b8135611f23848260208601611ebc565b91505092915050565b600060208284031215611f4257611f41611912565b5b600082013567ffffffffffffffff811115611f6057611f5f611917565b5b611f6c84828501611efe565b91505092915050565b60008060408385031215611f8c57611f8b611912565b5b6000611f9a85828601611b68565b9250506020611fab85828601611b68565b9150509250929050565b7f4e487b7100000000000000000000000000000000000000000000000000000000600052602260045260246000fd5b60006002820490506001821680611ffc57607f821691505b60208210810361200f5761200e611fb5565b5b50919050565b7f4552433732313a20617070726f76656420717565727920666f72206e6f6e657860008201527f697374656e7420746f6b656e0000000000000000000000000000000000000000602082015250565b6000612071602c836119e2565b915061207c82612015565b604082019050919050565b600060208201905081810360008301526120a081612064565b9050919050565b7f4552433732313a20617070726f76616c20746f2063757272656e74206f776e6560008201527f7200000000000000000000000000000000000000000000000000000000000000602082015250565b60006121036021836119e2565b915061210e826120a7565b604082019050919050565b60006020820190508181036000830152612132816120f6565b9050919050565b7f4552433732313a20617070726f76652063616c6c6572206973206e6f74206f7760008201527f6e6572206e6f7220617070726f76656420666f7220616c6c0000000000000000602082015250565b60006121956038836119e2565b91506121a082612139565b604082019050919050565b600060208201905081810360008301526121c481612188565b9050919050565b7f4552433732313a207472616e736665722063616c6c6572206973206e6f74206f60008201527f776e6572206e6f7220617070726f766564000000000000000000000000000000602082015250565b60006122276031836119e2565b9150612232826121cb565b604082019050919050565b600060208201905081810360008301526122568161221a565b9050919050565b7f4552433732313a206f776e657220717565727920666f72206e6f6e657869737460008201527f656e7420746f6b656e0000000000000000000000000000000000000000000000602082015250565b60006122b96029836119e2565b91506122c48261225d565b604082019050919050565b600060208201905081810360008301526122e8816122ac565b9050919050565b7f4552433732313a2062616c616e636520717565727920666f7220746865207a6560008201527f726f206164647265737300000000000000000000000000000000000000000000602082015250565b600061234b602a836119e2565b9150612356826122ef565b604082019050919050565b6000602082019050818103600083015261237a8161233e565b9050919050565b7f4552433732314d657461646174613a2055524920717565727920666f72206e6f60008201527f6e6578697374656e7420746f6b656e0000000000000000000000000000000000602082015250565b60006123dd602f836119e2565b91506123e882612381565b604082019050919050565b6000602082019050818103600083015261240c816123d0565b9050919050565b600081905092915050565b6000612429826119d7565b6124338185612413565b93506124438185602086016119f3565b80840191505092915050565b600061245b828561241e565b9150612467828461241e565b91508190509392505050565b7f4552433732313a206f70657261746f7220717565727920666f72206e6f6e657860008201527f697374656e7420746f6b656e0000000000000000000000000000000000000000602082015250565b60006124cf602c836119e2565b91506124da82612473565b604082019050919050565b600060208201905081810360008301526124fe816124c2565b9050919050565b7f4552433732313a207472616e736665722066726f6d20696e636f72726563742060008201527f6f776e6572000000000000000000000000000000000000000000000000000000602082015250565b60006125616025836119e2565b915061256c82612505565b604082019050919050565b6000602082019050818103600083015261259081612554565b9050919050565b7f4552433732313a207472616e7366657220746f20746865207a65726f2061646460008201527f7265737300000000000000000000000000000000000000000000000000000000602082015250565b60006125f36024836119e2565b91506125fe82612597565b604082019050919050565b60006020820190508181036000830152612622816125e6565b9050919050565b7f4e487b7100000000000000000000000000000000000000000000000000000000600052601160045260246000fd5b600061266382611a92565b915061266e83611a92565b92508282101561268157612680612629565b5b828203905092915050565b600061269782611a92565b91506126a283611a92565b9250827fffffffffffffffffffffffffffffffffffffffffffffffffffffffffffffffff038211156126d7576126d6612629565b5b828201905092915050565b7f4552433732313a20617070726f766520746f2063616c6c657200000000000000600082015250565b60006127186019836119e2565b9150612723826126e2565b602082019050919050565b600060208201905081810360008301526127478161270b565b9050919050565b7f4552433732313a207472616e7366657220746f206e6f6e20455243373231526560008201527f63656976657220696d706c656d656e7465720000000000000000000000000000602082015250565b60006127aa6032836119e2565b91506127b58261274e565b604082019050919050565b600060208201905081810360008301526127d98161279d565b9050919050565b60006127eb82611a92565b91507fffffffffffffffffffffffffffffffffffffffffffffffffffffffffffffffff820361281d5761281c612629565b5b600182019050919050565b7f4e487b7100000000000000000000000000000000000000000000000000000000600052601260045260246000fd5b600061286282611a92565b915061286d83611a92565b92508261287d5761287c612828565b5b828204905092915050565b600061289382611a92565b915061289e83611a92565b9250826128ae576128ad612828565b5b828206905092915050565b7f4e487b7100000000000000000000000000000000000000000000000000000000600052603260045260246000fd5b600081519050919050565b600082825260208201905092915050565b600061290f826128e8565b61291981856128f3565b93506129298185602086016119f3565b61293281611a26565b840191505092915050565b60006080820190506129526000830187611b27565b61295f6020830186611b27565b61296c6040830185611c10565b818103606083015261297e8184612904565b905095945050505050565b60008151905061299881611948565b92915050565b6000602082840312156129b4576129b3611912565b5b60006129c284828501612989565b91505092915050565b7f4552433732313a206d696e7420746f20746865207a65726f2061646472657373600082015250565b6000612a016020836119e2565b9150612a0c826129cb565b602082019050919050565b60006020820190508181036000830152612a30816129f4565b9050919050565b7f4552433732313a20746f6b656e20616c7265616479206d696e74656400000000600082015250565b6000612a6d601c836119e2565b9150612a7882612a37565b602082019050919050565b60006020820190508181036000830152612a9c81612a60565b905091905056fea26469706673582212208e69f6c516c866e1fb9f7edc95f675305f061ca575221f197f5825e80c57a80a64736f6c634300080d0033",
  "immutableReferences": {},
  "source": "// SPDX-License-Identifier: MIT\npragma solidity >=0.8.0 <0.9.0;\n\nimport \"@openzeppelin/contracts/token/ERC721/ERC721.sol\";\nimport \"@openzeppelin/contracts/utils/Counters.sol\";\n\ncontract SimpleNFT is ERC721 {\n    using Counters for Counters.Counter;\n\n    address public owner = msg.sender;\n\n    struct Data {\n        string name;\n    }\n\n    Data[] public dataEntries;\n    Counters.Counter private _tokenIdCounter;\n\n    constructor() ERC721(\"Simple NFT\", \"SNFT\") {}\n\n    function mint(string memory name) public {\n        Data memory data = Data(name);\n\n        dataEntries.push(data);\n\n        _safeMint(msg.sender, _tokenIdCounter.current());\n\n        _tokenIdCounter.increment();\n    }\n\n    function getTotalCount() public view returns (uint256) {\n        return _tokenIdCounter.current();\n    }\n}\n",
  "sourcePath": "C:\\projects\\own\\ethereum\\hello-ethereum\\blockchain\\contracts\\SimpleNFT.sol",
  "compiler": {
    "name": "solc",
    "version": "0.8.13+commit.abaa5c0e.Emscripten.clang"
  },
  "schemaVersion": "3.4.7",
  "updatedAt": "2022-04-22T09:52:56.253Z",
  "networkType": "ethereum",
  "devdoc": {
    "kind": "dev",
    "methods": {
      "approve(address,uint256)": {
        "details": "See {IERC721-approve}."
      },
      "balanceOf(address)": {
        "details": "See {IERC721-balanceOf}."
      },
      "getApproved(uint256)": {
        "details": "See {IERC721-getApproved}."
      },
      "isApprovedForAll(address,address)": {
        "details": "See {IERC721-isApprovedForAll}."
      },
      "name()": {
        "details": "See {IERC721Metadata-name}."
      },
      "ownerOf(uint256)": {
        "details": "See {IERC721-ownerOf}."
      },
      "safeTransferFrom(address,address,uint256)": {
        "details": "See {IERC721-safeTransferFrom}."
      },
      "safeTransferFrom(address,address,uint256,bytes)": {
        "details": "See {IERC721-safeTransferFrom}."
      },
      "setApprovalForAll(address,bool)": {
        "details": "See {IERC721-setApprovalForAll}."
      },
      "supportsInterface(bytes4)": {
        "details": "See {IERC165-supportsInterface}."
      },
      "symbol()": {
        "details": "See {IERC721Metadata-symbol}."
      },
      "tokenURI(uint256)": {
        "details": "See {IERC721Metadata-tokenURI}."
      },
      "transferFrom(address,address,uint256)": {
        "details": "See {IERC721-transferFrom}."
      }
    },
    "version": 1
  },
  "userdoc": {
    "kind": "user",
    "methods": {},
    "version": 1
  }
}